:020000040800F2
:1000000000500020B5030008B1030008B103000848
:10001000B1030008B1030008B103000800000000AC
:10002000000000000000000000000000B103000814
:10003000B103000800000000B1030008B10300088C
:10004000B1030008B1030008B1030008B1030008C0
:10005000B1030008B1030008B1030008B1030008B0
:10006000B1030008B1030008B1030008B1030008A0
:10007000B1030008B1030008B1030008B103000890
:10008000B1030008B1030008B1030008B103000880
:10009000B1030008B1030008B1030008B103000870
:1000A000B1030008B1030008B1030008B103000860
:1000B000ED000008B1030008B1030008B103000817
:1000C000B1030008B1030008B1030008B103000840
:1000D000B1030008B1030008B1030008B103000830
:1000E000B1030008B1030008B1030008EC462DE994
:1000F0000048ACF1040B8BB010480088C14389B2B2
:100100000F48006801400E4801600E480078400921
:1001100000F0010000280CBF0121002109480278ED
:10012000C8B2400100F0200022F020020243D0B209
:10013000044908700BB0BDE8008800BF1A00002019
:10014000100000400D100140EC462DE90048ACF1D4
:10015000040B8BB000F0BAF81E48006840F01C0099
:100160001C4908601C481D4908601B491C48016067
:100170001C4801681C48006808431A4908600021AF
:100180004FF08040016000201849086000201849A5
:1001900008600020174908604FF47A70164908601B
:1001A0004FF47A70154908601548008815490860B1
:1001B000154801884FF08040006808434FF08041A7
:1001C00008602021114801704FF0805010490860EC
:1001D000FEE700BF181002403333333300100140F4
:1001E000041001401C1002401400002004000040D4
:1001F0001800004020000040280000402C00004073
:10020000180000200C000040100000201CE400E05A
:1002100000E100E050E800CFACF1010C40E800C381
:10022000002BF7D16046704750E800CF0CF1010C6D
:1002300040E800C3002BF7D16046704700B500F0DE
:1002400001F800BD00B506480168002903D0054A41
:100250001068884700E004483221016000BD00BFFB
:10026000A40000209C000020A000002010B5016820
:10027000002914D00168A1F10C040021016060681C
:1002800000280CDB04F10400FFF7C4FF00280CBFBA
:1002900001200020002802D0204600F03BF810BDCD
:1002A00030B504460D462068A8420DD0002D07D079
:1002B00055F8080C002803DDA5F10800FFF7B4FF8E
:1002C0002046FFF7D3FF256030BD00BF30B5FFF7F4
:1002D000B5FF0D480568012D0ED300240134E00060
:1002E0000949405800281FBFE0000749405880478F
:1002F00006480460AC42F1D30548006800281EBFE0
:1003000003480068804730BD000000200400002042
:100310001C00002000B502490968884700BD00BFE5
:100320002C000020F0B51F4804682078617840EA6E
:100330000120A17840EA0140E17840EA0160A0F1A3
:100340000105002D2CDB6FF0000600BF013604EB29
:10035000C60204321078517840EA0120917840EAD0
:100360000140D17840EA01600768103706E000BF1D
:1003700007F104000021FFF793FF103704EBC602DA
:1003800008321078517840EA0120917840EA014023
:10039000D17840EA01600068B842E9D8AE42D5DBC6
:1003A000F0BD00BF2000002000B5FFF7BBFF00BD7F
:1003B000FEE77047DFF834100D4A0E4B9A429EBF9D
:1003C00051F8040B42F8040BF8E70649064A4FF0CF
:1003D000000091429CBF41F8040BFAE7FFF7B4FE1E
:1003E000FFF7E6BF9C000020A800002000040008E2
:1003F000000000209B000020704700BF00000000AC
:10040000010000000000000000000000A903000837
:1004100001000000010000000200020000000000D6
:10042000FC030008000000000000000000000000C5
:1004300000000000000000000000000000000000BC
:1004400000000000000000000000000000000000AC
:100450000000000046504320332E332E312D724EC3
:100460006963687420766573696F6E696574657316
:100470002056657A656963686E6973205B32303136
:10048000382F31302F31335D20666F722061726DED
:0B049000202D20656D626564646564CA
:04000005080003B537
:00000001FF
