:020000040800F2
:1000000000100020810400087D0400087D04000821
:100010007D0400087D0400087D0400080000000045
:100020000000000000000000000000007D04000847
:100030007D040008000000007D040008690100083C
:100040007D0400087D0400087D0400087D0400088C
:100050007D0400087D0400087D0400087D0400087C
:100060007D0400087D0400087D0400087D0400086C
:100070007D0400087D0400087D0400087D0400085C
:100080007D0400087D0400087D0400087D0400084C
:100090007D0400087D0400087D0400087D0400083C
:1000A0007D0400087D0400087D0400087D0400082C
:1000B000890200087D0400087D0400087D04000812
:1000C0007D0400087D0400087D0400087D0400080C
:1000D0007D0400087D0400087D0400087D040008FC
:1000E0007D0400087D0400087D0400087D040008EC
:1000F0007D0400087D0400087D0400087D040008DC
:100100007D0400087D0400087D0400087D040008CB
:100110007D0400087D0400087D0400087D040008BB
:100120007D0400087D0400087D0400087D040008AB
:10013000EC462DE90048ACF1040B8CB06FF00000E8
:100140004BF8300C5BF8300C00F101004BF8300C30
:1001500000BF5BF8300C43F69821884200D2F1E7EB
:100160000CB0BDE8008800BFEC462DE90048ACF1BA
:10017000040B8BB03249B1F9000000F1010000B26C
:1001800008802F48B0F90000B0F57A7F00DC09E064
:100190002C4800686FEA00012A4801604FF0000017
:1001A000274908802849B1F9000000F1010000B298
:1001B00008802548B0F90000082800DA03E04FF075
:1001C0000000214908804FF00000204908602048C5
:1001D000B0F9000000F102004FF00A0190FBF1F0CD
:1001E0004FF00A0100FB01F11948B0F9000000F1DD
:1001F0000200A0EB01004FEAC00213480088154935
:100200001144085C4FEA5013114800884FEAC002BD
:100210000D4800880F491144085C40EA03004FEA8A
:1002200000210D4801600848B0F900004FF00101BD
:1002300001FA00F0054908600BB0BDE8008800BF76
:10024000580000200C100140A80000200C080140BC
:10025000AC000020080000200C0C0140EC462DE909
:100260000048ACF1040B8BB041F61F41044801601B
:100270004FF00700034908600BB0BDE8008800BFDD
:1002800014E000E010E000E0EC462DE90048ACF19D
:10029000040B8BB00BB0BDE8008800BFEC462DE925
:1002A0000048ACF1040B8BB000F07CF8FFF7D6FFF0
:1002B0002648006840F01C01244801602448254974
:1002C00008602349244801602148244908602049E6
:1002D000234801601E48234908601D4822490860E0
:1002E0004FF00200214908802AE000BF2049B1F9FF
:1002F000000000F1010000B208801D48B0F90000C4
:100300003C2800DA03E04FF0000019490880184843
:10031000B0F90000002800D010E01449B1F9000045
:1003200000F1010000B208801048B0F900000A286E
:1003300000DA03E04FF000000C490880FFF7F8FEF8
:10034000D4E700F093F80BB0BDE800881810024025
:10035000333333330008014004080140000C0140EE
:10036000040C01400010014004100140AC000020CA
:10037000AA00002000B500F001F800BD00B5064855
:100380000168002903D0054A1068884700E0044846
:100390003221016000BD00BFC0000020B800002075
:1003A000BC00002030B5FFF7E5FF0D480568012DC2
:1003B0000ED300240134E0000949405800281FBF33
:1003C000E00007494058804706480460AC42F1D33A
:1003D0000548006800281EBF03480068804730BDFC
:1003E00000000020040000206000002000B510E0A4
:1003F0000A4908680138086009484168C9000C309A
:100400004058002805D006484168C9000C304058C3
:100410008047024800680028EAD800BD0400002098
:100420000000002010B511E00C480268002A03D03B
:100430000B490868904700E00A48002101800A48FB
:10044000046800210848016020468047064800688B
:100450000028E9D1FFF7CAFF10BD00BFC00000208F
:10046000B0000020B40000205C00002000B5FFF7C1
:10047000D9FF00F001F800BD00F000B8FEE77047BA
:10048000DFF834100D4A0E4B9A429EBF51F8040B10
:1004900042F8040BF8E70649064A4FF00000914283
:1004A0009CBF41F8040BFAE7FFF7F8FEFFF7E6BF41
:1004B000A8000020C4000020C8040008000000209C
:0804C000A5000020704700BFF9
:1004C8000000000000000000E0A0A0A0E000000084
:1004D80040C0404040000000E020E080E000000014
:1004E800E020E020E0000000A0A0E02020000000C4
:1004F800E080E020E0000000E080E0A0E0000000F4
:10050800E020202020000000E0A0E0A0E0000000A3
:10051800E0A0E020E0000000000000000000000073
:100528000000000030010008740300087C04000883
:10053800C8040008C8040008C8040008465043203E
:10054800332E312E31205B323031382F30342F307A
:10055800375D20666F722061726D202D20656D6297
:05056800656464656498
:04000005080004816A
:00000001FF
