:020000040800F2
:1000000000500020290300082503000825030008EC
:100010002503000825030008250300080000000050
:1000200000000000000000000000000025030008A0
:100030002503000800000000250300082503000830
:1000400025030008250300082503000825030008F0
:1000500025030008250300082503000825030008E0
:1000600025030008250300082503000825030008D0
:1000700025030008250300082503000825030008C0
:1000800025030008250300082503000825030008B0
:1000900025030008250300082503000825030008A0
:1000A0002503000825030008250300082503000890
:1000B0002503000825030008250300082503000880
:1000C0002503000825030008250300082503000870
:1000D0002503000825030008250300082503000860
:1000E000250300082503000825030008EC462DE938
:1000F0000048ACF1040B8CB06FF000004BF8300CF2
:100100005BF8300C01304BF8300C00BF5BF8300C62
:100110004CF250318842F3D30CB0BDE8008800BFE8
:10012000EC462DE90048ACF1040B8BB000F088F8E8
:100130001148006840F010000F4908600E48006840
:1001400040F008000C4908600B48006840F00400CB
:10015000094908604FF44010084908604FF4005006
:1001600007490860FFF7C2FF4FF4005005490860D7
:10017000FFF7BCFFF2E700BF181002400410014077
:10018000101001401410014050E800CFACF1010CF8
:1001900040E800C3002BF7D16046704750E800CF1D
:1001A0000CF1010C40E800C3002BF7D1604670470A
:1001B00000B500F001F800BD00B50648016800294F
:1001C00003D0054A1068884700E0044832210160E6
:1001D00000BD00BF98000020900000209400002087
:1001E00010B50168002914D00168A1F10C040021A8
:1001F0000160606800280CDB04F10400FFF7C4FF15
:1002000000280CBF01200020002802D0204600F06A
:100210003BF810BD30B504460D462068A8420DD00D
:10022000002D07D055F8080C002803DDA5F10800C3
:10023000FFF7B4FF2046FFF7D3FF256030BD00BFB6
:1002400030B5FFF7B5FF0D480568012D0ED300242A
:100250000134E0000949405800281FBFE000074969
:100260004058804706480460AC42F1D30548006816
:1002700000281EBF03480068804730BD00000020F2
:10028000040000201000002000B5024909688847DA
:1002900000BD00BF20000020F0B51F480468207892
:1002A000617840EA0120A17840EA0140E17840EA23
:1002B0000160A0F10105002D2CDB6FF0000600BFEE
:1002C000013604EBC60204321078517840EA01206E
:1002D000917840EA0140D17840EA01600768103720
:1002E00006E000BF07F104000021FFF793FF10377D
:1002F00004EBC60208321078517840EA0120917868
:1003000040EA0140D17840EA01600068B842E9D88B
:10031000AE42D5DBF0BD00BF1400002000B5FFF7F2
:10032000BBFF00BDFEE77047DFF834100D4A0E4BEF
:100330009A429EBF51F8040B42F8040BF8E70649B5
:10034000064A4FF0000091429CBF41F8040BFAE7C7
:10035000FFF7E6FEFFF7E6BF900000209C000020BC
:1003600074030008000000208F000020704700BFC9
:040370000000000089
:100374000100000000000000000000001D03000850
:1003840000000000700300080000000000000000EE
:100394000000000000000000000000000000000059
:1003A4000000000000000000000000000000000049
:1003B400000000000000000046504320332E332E7E
:1003C400312D724E6963687420766573696F6E6946
:1003D400657465732056657A656963686E69732010
:1003E4005B323031382F31302F30375D20666F72F9
:0F03F4002061726D202D20656D62656464656403
:0400000508000329C3
:00000001FF
