:020000040800F2
:1000000000500020E5060008E1060008E1060008AF
:10001000E1060008E1060008E10600080000000013
:10002000000000000000000000000000E1060008E1
:10003000E106000800000000E1060008E1060008F3
:10004000E1060008E1060008E1060008E1060008F4
:10005000E1060008E1060008E1060008E1060008E4
:10006000E1060008E1060008E1060008E1060008D4
:10007000E1060008E1060008E1060008E1060008C4
:10008000E1060008E1060008E1060008E1060008B4
:10009000E1060008E1060008E1060008E1060008A4
:1000A000E1060008E1060008E1060008E106000894
:1000B0000103000875030008E9030008E1060008D1
:1000C000E1060008E1060008E1060008E106000874
:1000D000E1060008E1060008E1060008E106000864
:1000E000E1060008E1060008E1060008EC462DE9FB
:1000F0000048ACF1040B8CB06FF000004BF8300CF2
:100100005BF8300C01304BF8300C00BF5BF8300C62
:1001100040F2DC518842F3D30CB0BDE8008800BF48
:10012000EC462DE90048ACF1040B8BB0184801688F
:100130001848006808431649086000214FF08040C5
:100140000160002014490860002014490860002064
:10015000134908604FF4FA60124908600A201249F6
:1001600008601248008812490860124801884FF060
:100170008040006808434FF08041086020210E480D
:1001800001704FF080500D4908600BB0BDE8008849
:100190001C1002401800002004000040180000401D
:1001A00020000040280000402C00004024000020D7
:1001B0000C000040140000201CE400E000E100E01E
:1001C000EC462DE90048ACF1040B8BB017480168F0
:1001D0001748006808431549086000211548016068
:1001E00000201549086000201449086000201449C7
:1001F00008604FF4FA60134908600B201249086048
:1002000012480088124908601248018809480068AD
:1002100008430849086020210F4801704FF0005042
:100220000E4908600BB0BDE8008800BF1C100240FA
:100230001C0000200004004004040040180400409A
:1002400020040040280400402C040040240000202A
:100250000C040040140000201DE400E000E100E078
:10026000EC462DE90048ACF1040B8BB0174801684F
:1002700017480068084315490860002115480160C7
:100280000020154908600020144908600020144926
:1002900008604FF4FA60134908601320124908609F
:1002A000124800881249086012480188094800680D
:1002B00008430849086020210F4801704FF0804032
:1002C0000E4908600BB0BDE8008800BF1C1002405A
:1002D00020000020000800400408004018080040EA
:1002E00020080040280800402C080040240000207E
:1002F0000C080040140000201EE400E000E100E0D3
:10030000EC462DE90048ACF1040B8BB01548008891
:10031000C14389B214480068014013480160134981
:1003200008680130086011480068502817DB002178
:100330000E4801600E480078800800F00100002897
:100340000CBF012100210A480278C8B2800000F0E9
:10035000040022F004020243D0B2054908700BB039
:10036000BDE8008826000020100000402800002082
:100370000C080140EC462DE90048ACF1040B8BB0B1
:1003800015480088C14389B21448006801401348E9
:10039000016013490868013008601148006850285E
:1003A00017DB00210E4801600E480078000900F0BC
:1003B000010000280CBF012100210A480278C8B2C0
:1003C000000100F0100022F010020243D0B20549F3
:1003D00008700BB0BDE80088260000201004004023
:1003E0002C0000200D0C0140EC462DE90048ACF13A
:1003F000040B8BB015480088C14389B214480068CB
:100400000140134801601349086801300860114831
:100410000068502817DB00210E4801600E48007864
:10042000800800F0010000280CBF012100210A48CB
:100430000278C8B2800000F0040022F004020243F7
:10044000D0B2054908700BB0BDE800882600002036
:1004500010080040300000200D0C0140EC462DE952
:100460000048ACF1040B8BB000F0C8F82A480068D3
:1004700040F01C002849086028482949086027489E
:100480002849086025492848016024482749086010
:100490002248274908602148264908600220264949
:1004A0000860FFF73DFEFFF78BFEFFF7D9FE00BFA8
:1004B000224908680130086020480068B0F5167FBE
:1004C000A2BF00201D4908601C48006800281FD1F9
:1004D0001B480078400900F0010000280CBF0121F2
:1004E000002117480278C8B2400100F0200022F035
:1004F00020020243D0B2124908700F490868013047
:1005000008600D4800680A28A2BF00210A4801605F
:10051000FFF7ECFDCCE700BF181002403333333354
:100520000008014004080140000C0140040C014097
:100530000010014004100140B40000201000002011
:100540000D10014050E800CFACF1010C40E800C3B1
:10055000002BF7D16046704750E800CF0CF1010C3A
:1005600040E800C3002BF7D16046704700B500F0AB
:1005700001F800BD00B506480168002903D0054A0E
:100580001068884700E004483221016000BD00BFC8
:10059000C0000020B8000020BC00002010B5016899
:1005A000002914D00168A1F10C04002101606068E9
:1005B00000280CDB04F10400FFF7C4FF00280CBF87
:1005C00001200020002802D0204600F03BF810BD9A
:1005D00030B504460D462068A8420DD0002D07D046
:1005E00055F8080C002803DDA5F10800FFF7B4FF5B
:1005F0002046FFF7D3FF256030BD00BF30B5FFF7C1
:10060000B5FF0D480568012D0ED300240134E0002C
:100610000949405800281FBFE0000749405880475B
:1006200006480460AC42F1D30548006800281EBFAC
:1006300003480068804730BD00000020040000200F
:100640003400002000B502490968884700BD00BF9A
:1006500044000020F0B51F4804682078617840EA23
:100660000120A17840EA0140E17840EA0160A0F170
:100670000105002D2CDB6FF0000600BF013604EBF6
:10068000C60204321078517840EA0120917840EA9D
:100690000140D17840EA01600768103706E000BFEA
:1006A00007F104000021FFF793FF103704EBC602A7
:1006B00008321078517840EA0120917840EA0140F0
:1006C000D17840EA01600068B842E9D8AE42D5DB93
:1006D000F0BD00BF3800002000B5FFF7BBFF00BD34
:1006E000FEE77047DFF834100D4A0E4B9A429EBF6A
:1006F00051F8040B42F8040BF8E70649064A4FF09C
:10070000000091429CBF41F8040BFAE7FFF7A6FEF8
:10071000FFF7E6BFB4000020C40000203007000847
:1007200000000020B3000020704700BF0000000060
:10073000010000000000000000000000D9060008D1
:1007400000000000010000000100000002000000A5
:100750000400000002000200000000000000000091
:1007600000000000000000002C070008000000004E
:100770000000000000000000000000000000000079
:100780000000000000000000000000000000000069
:100790000000000000000000000000004650432060
:1007A000332E332E312D724E696368742076657353
:1007B000696F6E69657465732056657A65696368EB
:1007C0006E6973205B323031382F31302F31335D19
:1007D00020666F722061726D202D20656D626564E8
:0307E000646564E9
:04000005080006E504
:00000001FF
