:020000040800F2
:1000000000500020F1030008ED030008ED03000894
:10001000ED030008ED030008ED03000800000000F8
:10002000000000000000000000000000ED030008D8
:10003000ED03000800000000ED030008ED030008D8
:10004000ED030008ED030008ED030008ED030008D0
:10005000ED030008ED030008ED030008ED030008C0
:10006000ED030008ED030008ED030008ED030008B0
:10007000ED030008ED030008ED030008ED030008A0
:10008000ED030008ED030008ED030008ED03000890
:10009000ED030008ED030008ED030008ED03000880
:1000A000ED030008ED030008ED030008ED03000870
:1000B000ED030008ED030008ED030008ED03000860
:1000C000ED030008ED030008ED030008ED03000850
:1000D000ED030008ED030008ED030008ED03000840
:1000E000ED030008ED030008ED030008EC462DE9E0
:1000F0000048ACF1040B8CB06FF000004BF8300CF2
:100100005BF8300C01304BF8300C00BF5BF8300C62
:1001100040F2DC518842F3D30CB0BDE8008800BF48
:10012000EC462DE90048ACF1040B8BB000F0ECF884
:100130003848006840F01C003649086036483749A6
:10014000086035493648016033483649086032490D
:10015000354801603049354801602F48344908600E
:1001600002203449086000BF334908680130086044
:1001700031480068B0F5167FA2BF00202E49086004
:100180002D48006800280FD12C480068C0432B4937
:1001900008602849086801300860264800680A2875
:1001A000A2BF002023490860254908680130086083
:1001B000234800680828A2BF0021214801600121CE
:1001C0001F48006881401F4801601A4800680230DB
:1001D0000A2190FBF1F00A2100FB01F115480068AB
:1001E0000230A0EB0100C10015480068164A0A441D
:1001F000105C43090F480068C10011480068124AAA
:100200000A44105C1843000210490860FFF76EFFB3
:10021000AAE700BF1810024033333333000801400F
:1002200004080140000C0140040C01400010014092
:1002300004100140E8000020600000200C10014084
:10024000E40000200C080140100000200C0C0140CC
:1002500050E800CFACF1010C40E800C3002BF7D10F
:100260006046704750E800CF0CF1010C40E800C335
:10027000002BF7D16046704700B500F001F800BDD3
:1002800000B506480168002903D0054A1068884770
:1002900000E004483221016000BD00BFF4000020EE
:1002A000EC000020F000002010B50168002914D0F7
:1002B0000168A1F10C0400210160606800280CDBDA
:1002C00004F10400FFF7C4FF00280CBF0120002048
:1002D000002802D0204600F03BF810BD30B504469F
:1002E0000D462068A8420DD0002D07D055F8080C07
:1002F000002803DDA5F10800FFF7B4FF2046FFF753
:10030000D3FF256030BD00BF30B5FFF7B5FF0D4806
:100310000568012D0ED300240134E000094940583E
:1003200000281FBFE0000749405880470648046086
:10033000AC42F1D30548006800281EBF034800689E
:10034000804730BD00000020040000206400002031
:1003500000B502490968884700BD00BF740000204D
:10036000F0B51F4804682078617840EA0120A17840
:1003700040EA0140E17840EA0160A0F10105002D6A
:100380002CDB6FF0000600BF013604EBC60204321E
:100390001078517840EA0120917840EA0140D17804
:1003A00040EA01600768103706E000BF07F104006B
:1003B0000021FFF793FF103704EBC60208321078D4
:1003C000517840EA0120917840EA0140D17840EA32
:1003D00001600068B842E9D8AE42D5DBF0BD00BF8D
:1003E0006800002000B5FFF7BBFF00BDFEE77047C7
:1003F000DFF834100D4A0E4B9A429EBF51F8040BA1
:1004000042F8040BF8E70649064A4FF00000914213
:100410009CBF41F8040BFAE7FFF782FEFFF7E6BF47
:10042000E4000020F80000203C0400080000002048
:0C043000E3000020704700BF0000000047
:10043C00010000000000000000000000E5030008BF
:10044C00E0A0A0A0E000000040C040404000000040
:10045C00E020E080E0000000E020E020E000000070
:10046C00A0A0E02020000000E080E020E0000000E0
:10047C00E080E0A0E0000000E02020202000000050
:10048C00E0A0E0A0E0000000E0A0E020E000000020
:10049C00000000000000000038040008000000000C
:1004AC000000000000000000000000000000000040
:1004BC000000000000000000000000000000000030
:1004CC000000000000000000000000004650432027
:1004DC00332E332E312D724E69636874207665731A
:1004EC00696F6E69657465732056657A65696368B2
:1004FC006E6973205B323031382F31302F30375DDD
:10050C0020666F722061726D202D20656D626564AE
:03051C00646564AF
:04000005080003F1FB
:00000001FF
