:020000040800F2
:1000000000100020990400089504000895040008D9
:1000100095040008950400089504000800000000FD
:10002000000000000000000000000000950400082F
:1000300095040008000000009504000895040008DD
:10004000950400089504000895040008950400082C
:10005000950400089504000895040008950400081C
:10006000950400089504000895040008950400080C
:1000700095040008950400089504000895040008FC
:1000800095040008950400089504000895040008EC
:1000900095040008950400089504000895040008DC
:1000A00095040008950400089504000895040008CC
:1000B00095040008950400089504000895040008BC
:1000C00095040008950400089504000895040008AC
:1000D000950400089504000895040008950400089C
:1000E000950400089504000895040008950400088C
:1000F000950400089504000895040008950400087C
:10010000950400089504000895040008950400086B
:10011000950400089504000895040008950400085B
:10012000950400089504000895040008950400084B
:10013000EC462DE90048ACF1040B8CB06FF00000E8
:100140004BF8300C5BF8300C00F101004BF8300C30
:1001500000BF5BF8300C642800D2F3E70CB0BDE8B8
:10016000008800BFEC462DE90048ACF1040B8CB0D0
:100170000BF8300C1BF8300C4FEA501000F0FF0069
:100180000BF8300C1BF8300C4FF0010101FA00F0B5
:100190004FEA0020024908600CB0BDE8008800BFAB
:1001A0000C0C0140EC462DE90048ACF1040B8DB07D
:1001B0000BF8300C3B48008840F2014140EA010056
:1001C00080B238490880FFF7B3FFFFE73648008860
:1001D00000F002000028F9D1FFE7FFE7334800886C
:1001E00000F00100002800D107E02F48008800F04F
:1001F0000300002800D100E000E0EFE74FF05401D9
:100200002B480180FFF794FF00E000BF27480088DB
:1002100000F08200002800D107E02348008800F0A9
:100220000700002800D100E000E0EFE72148008847
:1002300040F0A0001F4908804FF000001C490880D2
:10024000FFF776FF6FF000002BF8340C3BF9340C0D
:1002500000F1010000B22BF8340CFFE713480088CE
:1002600000F08400002800D107E00F48008800F06B
:100270000700002800D100E000E0EFE73BF8340C75
:100280000D49405C0A490880FFF752FF3BF9340CE6
:10029000032800DADAE74FF40070024908800DB055
:1002A000BDE8008800540040185400401454004039
:1002B000105400400854004050000020EC462DE946
:1002C0000048ACF1040B8BB000F078F84FF0000060
:1002D000214908704FF00100204908704FF00200DA
:1002E0001F4908704FF003001E4908701E4800683F
:1002F00040F01C001C4908601C481D4908601B4850
:100300001C49086019481C49086018481B490860C6
:1003100016481B49086015481A4908604FF000004C
:10032000194908604FF00000FFF73CFF0DE000BFE7
:100330001549086800F101000860134800684FEA99
:10034000102000F0FF00FFF70DFFF1E700F09AF832
:100350000BB0BDE8008800BF500000205100002015
:100360005200002053000020181002403333333372
:100370000008014004080140000C0140040C014049
:1003800000100140041001404C00002000B500F0B6
:1003900001F800BD00B506480168002903D0054AF0
:1003A0001068884700E004483221016000BD00BFAA
:1003B000640000205C0000206000002030B5FFF7E2
:1003C000E5FF0D480568012D0ED300240134E0003F
:1003D0000949405800281FBFE0000749405880479E
:1003E00006480460AC42F1D30548006800281EBFEF
:1003F00003480068804730BD000000200400002052
:100400000C00002000B510E00A49086801380860B7
:1004100009484168C9000C304058002805D00648FA
:100420004168C9000C3040588047024800680028E5
:10043000EAD800BD040000200000002010B511E043
:100440000C480268002A03D00B490868904700E076
:100450000A48002101800A48046800210848016018
:1004600020468047064800680028E9D1FFF7CAFF08
:1004700010BD00BF64000020540000205800002080
:100480000800002000B5FFF7D9FF00F001F800BD1B
:1004900000F000B8FEE77047DFF834100D4A0E4B4D
:1004A0009A429EBF51F8040B42F8040BF8E7064944
:1004B000064A4FF0000091429CBF41F8040BFAE756
:1004C000FFF7FCFEFFF7E6BF4C00002068000020AD
:1004D000E00400080000002049000020704700BF31
:1004E000000000000000000000000000000000000C
:1004F000300100088C03000894040008E0040008A0
:1005000046504320332E312E31205B323031382F8C
:1005100030342F30375D20666F722061726D202D70
:0905200020656D62656464656488
:040000050800049952
:00000001FF
