:020000040800F2
:1000000000500020D1040008CD040008CD040008F1
:10001000CD040008CD040008CD0400080000000055
:10002000000000000000000000000000CD040008F7
:10003000CD04000800000000CD040008CD04000835
:10004000CD040008CD040008CD040008CD0400084C
:10005000CD040008CD040008CD040008CD0400083C
:10006000CD040008CD040008CD040008CD0400082C
:10007000CD040008CD040008CD040008CD0400081C
:10008000CD040008CD040008CD040008CD0400080C
:10009000CD040008CD040008CD040008CD040008FC
:1000A000CD040008CD040008CD040008CD040008EC
:1000B00041020008CD040008CD040008CD0400086A
:1000C000CD040008CD040008CD040008CD040008CC
:1000D000CD040008CD040008CD040008CD040008BC
:1000E000CD040008CD040008CD040008EC462DE93D
:1000F0000048ACF1040B8CB06FF000004BF8300CF2
:100100005BF8300C01304BF8300C00BF5BF8300C62
:1001100040F2DC518842F3D30CB0BDE8008800BF48
:10012000EC462DE90048ACF1040B8BB01A49086885
:1001300001300860184800680828A2BF002116484E
:10014000016001211448006801FA00F013490860B9
:100150001348006802300A2190FBF1F00A2100FBED
:1001600001F10F4800680230A0EB0100C1000A480D
:1001700000680C4A0A44105C430909480068C10041
:1001800005480068074A0A44105C18430002064903
:1001900008600BB0BDE80088680000200C08014032
:1001A000EC000020100000200C0C0140EC462DE972
:1001B0000048ACF1040B8BB01748006840F0010018
:1001C0001549086000204FF0804108600020134965
:1001D00008600021124801600020124908604FF4B5
:1001E000FA60114908600A20104908601048008828
:1001F000104908602020104908704FF080500F49C6
:1002000008604FF08040006840F001004FF08041EE
:1002100008600BB0BDE800881C10024004000040DC
:100220001800004020000040280000402C00004042
:10023000640000200C0000401CE400E000E100E04D
:10024000EC462DE90048ACF1040B8BB00648008861
:10025000C14389B205480068014004480160FFF7C6
:100260005FFF0BB0BDE80088660000201000004072
:10027000EC462DE90048ACF1040B8BB000F0B4F86B
:100280002048006840F01C001E4908601E481F49B5
:1002900008601D491E4801601B481E4908601A4835
:1002A0001D49086018491D48016017481C4908602D
:1002B00002201C490860FFF779FF00BF1A4908684F
:1002C0000130086018480068B0F5167FA2BF002012
:1002D000154908601448006800280FD113480068C9
:1002E000C043124908600F490868013008600D4892
:1002F00000680A28A2BF00200A490860FFF7F6FE3E
:10030000DCE700BF181002403333333300080140EC
:1003100004080140000C0140040C014000100140A1
:1003200004100140EC000020600000200C1001408F
:1003300050E800CFACF1010C40E800C3002BF7D12E
:100340006046704750E800CF0CF1010C40E800C354
:10035000002BF7D16046704700B500F001F800BDF2
:1003600000B506480168002903D0054A106888478F
:1003700000E004483221016000BD00BFF800002009
:10038000F0000020F400002010B50168002914D00E
:100390000168A1F10C0400210160606800280CDBF9
:1003A00004F10400FFF7C4FF00280CBF0120002067
:1003B000002802D0204600F03BF810BD30B50446BE
:1003C0000D462068A8420DD0002D07D055F8080C26
:1003D000002803DDA5F10800FFF7B4FF2046FFF772
:1003E000D3FF256030BD00BF30B5FFF7B5FF0D4826
:1003F0000568012D0ED300240134E000094940585E
:1004000000281FBFE00007494058804706480460A5
:10041000AC42F1D30548006800281EBF03480068BD
:10042000804730BD00000020040000206C00002048
:1004300000B502490968884700BD00BF7C00002064
:10044000F0B51F4804682078617840EA0120A1785F
:1004500040EA0140E17840EA0160A0F10105002D89
:100460002CDB6FF0000600BF013604EBC60204323D
:100470001078517840EA0120917840EA0140D17823
:1004800040EA01600768103706E000BF07F104008A
:100490000021FFF793FF103704EBC60208321078F3
:1004A000517840EA0120917840EA0140D17840EA51
:1004B00001600068B842E9D8AE42D5DBF0BD00BFAC
:1004C0007000002000B5FFF7BBFF00BDFEE77047DE
:1004D000DFF834100D4A0E4B9A429EBF51F8040BC0
:1004E00042F8040BF8E70649064A4FF00000914233
:1004F0009CBF41F8040BFAE7FFF7BAFEFFF7E6BF2F
:10050000EC000020FC0000201C050008000000207A
:0C051000EB000020704700BF000000005E
:10051C00010000000000000000000000C5040008FD
:10052C00E0A0A0A0E000000040C04040400000005F
:10053C00E020E080E0000000E020E020E00000008F
:10054C00A0A0E02020000000E080E020E0000000FF
:10055C00E080E0A0E0000000E0202020200000006F
:10056C00E0A0E0A0E0000000E0A0E020E00000003F
:10057C00000000000200020000000000000000006B
:10058C00180500080000000000000000000000003A
:10059C00000000000000000000000000000000004F
:1005AC00000000000000000000000000000000003F
:1005BC000000000046504320332E332E312D724E56
:1005CC006963687420766573696F6E6965746573A9
:1005DC002056657A656963686E6973205B323031C9
:1005EC00382F31302F30375D20666F722061726D7D
:0B05FC00202D20656D6265646465645D
:04000005080004D11A
:00000001FF
