:020000040800F2
:100000000010002025040008210400082104000835
:100010002104000821040008210400080000000059
:1000200000000000000000000000000021040008A3
:100030002104000800000000210400082104000839
:1000400021040008210400082104000821040008FC
:1000500021040008210400082104000821040008EC
:1000600021040008210400082104000821040008DC
:1000700021040008210400082104000821040008CC
:1000800021040008210400082104000821040008BC
:1000900021040008210400082104000821040008AC
:1000A000210400082104000821040008210400089C
:1000B0006901000821040008210400082104000847
:1000C000210400082104000821040008210400087C
:1000D000210400082104000821040008210400086C
:1000E000210400082104000821040008210400085C
:1000F000210400082104000821040008210400084C
:10010000210400082104000821040008210400083B
:10011000210400082104000821040008210400082B
:10012000210400082104000821040008210400081B
:10013000EC462DE90048ACF1040B8CB06FF00000E8
:100140004BF8300C5BF8300C00F101004BF8300C30
:1001500000BF5BF8300C40F2DC51884200D2F1E77E
:100160000CB0BDE8008800BFEC462DE90048ACF1BA
:10017000040B8BB04FF6FF71024801600BB0BDE875
:10018000008800BF0C100140EC462DE90048ACF19E
:10019000040B8BB000F0D8F84FF000014E480180FE
:1001A0004E48006840F01C004C4908604C484D49DE
:1001B00008604B494C48016049484C49086048492F
:1001C0004B48016046484B49086045494A48016030
:1001D0004FF002004949088077E000BF4849B1F973
:1001E000000000F1010000B208804548B0F90000AD
:1001F000B0F5167F00DA03E04FF0000040490880B8
:100200003F48B0F90000002800D016E03D480068E3
:100210006FEA00003B4908603849B1F9000000F17D
:10022000010000B208803548B0F900000A2800DA61
:1002300003E04FF00000314908803349B1F9000074
:1002400000F1010000B208802F48B0F90000082832
:1002500000DA03E04FF000002B4908802A48B0F98B
:1002600000004FF0010101FA00F02849086023481E
:10027000B0F9000000F102004FF00A0190FBF1F02C
:100280004FF00A0100FB01F11C48B0F9000000F139
:100290000200A0EB01004FEAC0011B4800881C4A85
:1002A0000A44105C4FEA5013144800884FEAC0011A
:1002B00015480088164A0A44105C40EA03004FEAD9
:1002C000002014490860FFF733FF87E700F0A0F82B
:1002D0000BB0BDE8008800BF1000004018100240BD
:1002E000333333330008014004080140000C01405F
:1002F000040C01400010014004100140A000002047
:100300009E0000200C1001409C0000200C080140C1
:10031000080000200C0C014000B500F001F800BD01
:1003200000B506480168002903D0054A10688847CF
:1003300000E004483221016000BD00BFB40000208D
:10034000AC000020B000002030B5FFF7E5FF0D48FD
:100350000568012D0ED300240134E00009494058FE
:1003600000281FBFE0000749405880470648046046
:10037000AC42F1D30548006800281EBF034800685E
:10038000804730BD00000020040000205C000020F9
:1003900000B510E00A49086801380860094841685A
:1003A000C9000C304058002805D006484168C900F3
:1003B0000C3040588047024800680028EAD800BD49
:1003C000040000200000002010B511E00C48026875
:1003D000002A03D00B490868904700E00A48002132
:1003E00001800A48046800210848016020468047CF
:1003F000064800680028E9D1FFF7CAFF10BD00BF1A
:10040000B4000020A4000020A80000205800002014
:1004100000B5FFF7D9FF00F001F800BD00F000B80B
:10042000FEE77047DFF834100D4A0E4B9A429EBF2C
:1004300051F8040B42F8040BF8E70649064A4FF05E
:10044000000091429CBF41F8040BFAE7FFF79CFEC5
:10045000FFF7E6BF9C000020B80000206C040008F5
:0C0460000000002099000020704700BF41
:10046C000000000000000000E0A0A0A0E0000000E0
:10047C0040C0404040000000E020E080E000000070
:10048C00E020E020E0000000A0A0E0202000000020
:10049C00E080E020E0000000E080E0A0E000000050
:1004AC00E020202020000000E0A0E0A0E000000000
:1004BC00E0A0E020E00000000000000000000000D0
:1004CC003001000818030008200400086C04000820
:1004DC0046504320332E312E31205B323031382FB1
:1004EC0030342F30375D20666F722061726D202D95
:0904FC0020656D626564646564AD
:0400000508000425C6
:00000001FF
