:020000040800F2
:1000000000500020F9030008F5030008F50300087C
:10001000F5030008F5030008F503000800000000E0
:10002000000000000000000000000000F5030008D0
:10003000F503000800000000F5030008F5030008C0
:10004000F5030008F5030008F5030008F5030008B0
:10005000F5030008F5030008F5030008F5030008A0
:10006000F5030008F5030008F5030008F503000890
:10007000F5030008F5030008F5030008F503000880
:10008000F5030008F5030008F5030008F503000870
:10009000F5030008F5030008F5030008F503000860
:1000A000F5030008F5030008F5030008F503000850
:1000B000F5030008F5030008F5030008F503000840
:1000C000F5030008F5030008F5030008F503000830
:1000D000F5030008F5030008F5030008F503000820
:1000E000F5030008F5030008F5030008EC462DE9C8
:1000F0000048ACF1040B8CB06FF000004BF8300CF2
:100100005BF8300C01304BF8300C00BF5BF8300C62
:1001100040F2DC518842F3D30CB0BDE8008800BF48
:10012000EC462DE90048ACF1040B8BB000F0F0F880
:100130003948006840F01C003749086037483849A2
:100140000860364837490860344937480160334809
:100150003649086031493648016030493548016008
:100160000220354908600020344908603449086895
:100170000130086032480068B0F5167FA2BF002049
:100180002F4908602E48006800280FD12D480068CC
:10019000C0432C4908602849086801300860264897
:1001A00000680A28A2BF0020234908602649086881
:1001B00001300860244800680828A2BF00212248B6
:1001C00001600121204800688140204801601A48F0
:1001D000006802300A2190FBF1F00A2100FB01F1D6
:1001E000154800680230A0EB0100C1001648006805
:1001F000174A0A44105C43090F480068C1001248BE
:100200000068134A0A44105C184300021149086050
:10021000FFF76CFFAAE700BF1810024033333333F7
:100220000008014004080140000C0140040C01409A
:100230000010014004100140E800002010000040C0
:10024000600000200C100140E40000200C08014078
:10025000100000200C0C014050E800CFACF1010C64
:1002600040E800C3002BF7D16046704750E800CF4C
:100270000CF1010C40E800C3002BF7D16046704739
:1002800000B500F001F800BD00B50648016800297E
:1002900003D0054A1068884700E004483221016015
:1002A00000BD00BFF4000020EC000020F0000020A2
:1002B00010B50168002914D00168A1F10C040021D7
:1002C0000160606800280CDB04F10400FFF7C4FF44
:1002D00000280CBF01200020002802D0204600F09A
:1002E0003BF810BD30B504460D462068A8420DD03D
:1002F000002D07D055F8080C002803DDA5F10800F3
:10030000FFF7B4FF2046FFF7D3FF256030BD00BFE5
:1003100030B5FFF7B5FF0D480568012D0ED3002459
:100320000134E0000949405800281FBFE000074998
:100330004058804706480460AC42F1D30548006845
:1003400000281EBF03480068804730BD0000002021
:10035000040000206400002000B5024909688847B5
:1003600000BD00BF74000020F0B51F48046820786D
:10037000617840EA0120A17840EA0140E17840EA52
:100380000160A0F10105002D2CDB6FF0000600BF1D
:10039000013604EBC60204321078517840EA01209D
:1003A000917840EA0140D17840EA0160076810374F
:1003B00006E000BF07F104000021FFF793FF1037AC
:1003C00004EBC60208321078517840EA0120917897
:1003D00040EA0140D17840EA01600068B842E9D8BB
:1003E000AE42D5DBF0BD00BF6800002000B5FFF7CE
:1003F000BBFF00BDFEE77047DFF834100D4A0E4B1F
:100400009A429EBF51F8040B42F8040BF8E70649E4
:10041000064A4FF0000091429CBF41F8040BFAE7F6
:10042000FFF77EFEFFF7E6BFE4000020F8000020A3
:100430004404000800000020E3000020704700BFD3
:0404400000000000B8
:10044400010000000000000000000000ED030008AF
:10045400E0A0A0A0E000000040C040404000000038
:10046400E020E080E0000000E020E020E000000068
:10047400A0A0E02020000000E080E020E0000000D8
:10048400E080E0A0E0000000E02020202000000048
:10049400E0A0E0A0E0000000E0A0E020E000000018
:1004A40000000000000000004004000800000000FC
:1004B4000000000000000000000000000000000038
:1004C4000000000000000000000000000000000028
:1004D400000000000000000000000000465043201F
:1004E400332E332E312D724E696368742076657312
:1004F400696F6E69657465732056657A65696368AA
:100504006E6973205B323031382F31302F30365DD5
:1005140020666F722061726D202D20656D626564A6
:03052400646564A7
:04000005080003F9F3
:00000001FF
