:020000040800F2
:1000000000100020D1020008CD020008CD02000837
:10001000CD020008CD020008CD020008000000005B
:10002000000000000000000000000000CD020008F9
:10003000CD02000800000000CD020008CD0200083B
:10004000CD020008CD020008CD020008CD02000854
:10005000CD020008CD020008CD020008CD02000844
:10006000CD020008CD020008CD020008CD02000834
:10007000CD020008CD020008CD020008CD02000824
:10008000CD020008CD020008CD020008CD02000814
:10009000CD020008CD020008CD020008CD02000804
:1000A000CD020008CD020008CD020008CD020008F4
:1000B000CD020008CD020008CD020008CD020008E4
:1000C000CD020008CD020008CD020008CD020008D4
:1000D000CD020008CD020008CD020008CD020008C4
:1000E000CD020008CD020008CD020008CD020008B4
:1000F000CD020008CD020008CD020008CD020008A4
:10010000CD020008CD020008CD020008CD02000893
:10011000CD020008CD020008CD020008CD02000883
:10012000CD020008CD020008CD020008CD02000873
:10013000EC462DE90048ACF1040B8CB06FF00000E8
:100140004BF8300C5BF8300C00F101004BF8300C30
:1001500000BF5BF8300C0349884200D2F2E70CB0D4
:10016000BDE8008820A10700EC462DE90048ACF16D
:10017000040B8BB000F03EF80E48006840F0100011
:100180000C4908604FF480100B4908600CE000BF78
:100190004FF4005009490860FFF7CAFF4FF40050C0
:1001A00007490860FFF7C4FFF2E700F087F80BB0DB
:1001B000BDE80088181002400410014010100140F2
:1001C0001410014000B500F001F800BD00B506486C
:1001D0000168002903D0054A1068884700E00448F8
:1001E0003221016000BD00BF5C00002054000020EF
:1001F0005800002030B5FFF7E5FF0D480568012DD8
:100200000ED300240134E0000949405800281FBFE4
:10021000E00007494058804706480460AC42F1D3EB
:100220000548006800281EBF03480068804730BDAD
:1002300000000020040000200C00002000B510E0A9
:100240000A4908680138086009484168C9000C304B
:100250004058002805D006484168C9000C30405875
:100260008047024800680028EAD800BD040000204A
:100270000000002010B511E00C480268002A03D0ED
:100280000B490868904700E00A48002101800A48AD
:10029000046800210848016020468047064800683D
:1002A0000028E9D1FFF7CAFF10BD00BF5C000020A5
:1002B0004C000020500000200800002000B5FFF78F
:1002C000D9FF00F001F800BD00F000B8FEE770476C
:1002D000DFF834100D4A0E4B9A429EBF51F8040BC2
:1002E00042F8040BF8E70649064A4FF00000914235
:1002F0009CBF41F8040BFAE7FFF736FFFFF7E6BFB4
:100300004C000020600000201803000800000020BE
:0803100049000020704700BF06
:1003180000000000000000000000000000000000D5
:1003280030010008C4010008CC02000818030008C6
:1003380046504320332E312E31205B323031382F56
:1003480030342F30375D20666F722061726D202D3A
:0903580020656D62656464656452
:04000005080002D11C
:00000001FF
